{
  "contractName": "ExporterRole",
  "abi": [
    {
      "inputs": [],
      "stateMutability": "nonpayable",
      "type": "constructor"
    },
    {
      "anonymous": false,
      "inputs": [
        {
          "indexed": true,
          "internalType": "address",
          "name": "account",
          "type": "address"
        }
      ],
      "name": "ExporterAdded",
      "type": "event"
    },
    {
      "anonymous": false,
      "inputs": [
        {
          "indexed": true,
          "internalType": "address",
          "name": "account",
          "type": "address"
        }
      ],
      "name": "ExporterRemoved",
      "type": "event"
    },
    {
      "inputs": [
        {
          "internalType": "address",
          "name": "account",
          "type": "address"
        }
      ],
      "name": "isExporter",
      "outputs": [
        {
          "internalType": "bool",
          "name": "",
          "type": "bool"
        }
      ],
      "stateMutability": "view",
      "type": "function"
    },
    {
      "inputs": [
        {
          "internalType": "address",
          "name": "account",
          "type": "address"
        }
      ],
      "name": "addExporter",
      "outputs": [],
      "stateMutability": "nonpayable",
      "type": "function"
    },
    {
      "inputs": [],
      "name": "renounceExporter",
      "outputs": [],
      "stateMutability": "nonpayable",
      "type": "function"
    }
  ],
  "bytecode": "0x608060405234801561001057600080fd5b506100203361002560201b60201c565b6101c7565b61003d81600061008360201b6101181790919060201c565b8073ffffffffffffffffffffffffffffffffffffffff167f914e48e84fe0b3b39520e823a6dd0937569d1a34b8d689d47fbc3e1f41f4f90c60405160405180910390a250565b600073ffffffffffffffffffffffffffffffffffffffff168173ffffffffffffffffffffffffffffffffffffffff1614156100bd57600080fd5b6100cd828261013560201b60201c565b156100d757600080fd5b60018260000160008373ffffffffffffffffffffffffffffffffffffffff1673ffffffffffffffffffffffffffffffffffffffff16815260200190815260200160002060006101000a81548160ff0219169083151502179055505050565b60008073ffffffffffffffffffffffffffffffffffffffff168273ffffffffffffffffffffffffffffffffffffffff16141561017057600080fd5b8260000160008373ffffffffffffffffffffffffffffffffffffffff1673ffffffffffffffffffffffffffffffffffffffff16815260200190815260200160002060009054906101000a900460ff16905092915050565b61052e806101d66000396000f3fe608060405234801561001057600080fd5b50600436106100415760003560e01c80631c500c6114610046578063c5595c7b14610062578063dc5610ed1461006c575b600080fd5b610060600480360381019061005b91906103ca565b61009c565b005b61006a6100f0565b005b610086600480360381019061008191906103ca565b6100fb565b6040516100939190610429565b60405180910390f35b6100a5336100fb565b6100e4576040517f08c379a00000000000000000000000000000000000000000000000000000000081526004016100db90610444565b60405180910390fd5b6100ed816101c4565b50565b6100f93361021e565b565b600061011182600061027890919063ffffffff16565b9050919050565b600073ffffffffffffffffffffffffffffffffffffffff168173ffffffffffffffffffffffffffffffffffffffff16141561015257600080fd5b61015c8282610278565b1561016657600080fd5b60018260000160008373ffffffffffffffffffffffffffffffffffffffff1673ffffffffffffffffffffffffffffffffffffffff16815260200190815260200160002060006101000a81548160ff0219169083151502179055505050565b6101d881600061011890919063ffffffff16565b8073ffffffffffffffffffffffffffffffffffffffff167f914e48e84fe0b3b39520e823a6dd0937569d1a34b8d689d47fbc3e1f41f4f90c60405160405180910390a250565b61023281600061030a90919063ffffffff16565b8073ffffffffffffffffffffffffffffffffffffffff167f3e63bb3af59e4ad5151cd408a5208ed9a0d6574c8c575d280c95723d20f53e9c60405160405180910390a250565b60008073ffffffffffffffffffffffffffffffffffffffff168273ffffffffffffffffffffffffffffffffffffffff1614156102b357600080fd5b8260000160008373ffffffffffffffffffffffffffffffffffffffff1673ffffffffffffffffffffffffffffffffffffffff16815260200190815260200160002060009054906101000a900460ff16905092915050565b600073ffffffffffffffffffffffffffffffffffffffff168173ffffffffffffffffffffffffffffffffffffffff16141561034457600080fd5b61034e8282610278565b61035757600080fd5b60008260000160008373ffffffffffffffffffffffffffffffffffffffff1673ffffffffffffffffffffffffffffffffffffffff16815260200190815260200160002060006101000a81548160ff0219169083151502179055505050565b6000813590506103c4816104e1565b92915050565b6000602082840312156103e0576103df6104b3565b5b60006103ee848285016103b5565b91505092915050565b61040081610487565b82525050565b6000610413601b83610464565b915061041e826104b8565b602082019050919050565b600060208201905061043e60008301846103f7565b92915050565b6000602082019050818103600083015261045d81610406565b9050919050565b600082825260208201905092915050565b600061048082610493565b9050919050565b60008115159050919050565b600073ffffffffffffffffffffffffffffffffffffffff82169050919050565b600080fd5b7f4f6e6c792061204578706f727465722063616e20646f20746869730000000000600082015250565b6104ea81610475565b81146104f557600080fd5b5056fea26469706673582212208966e5e7709d93df8015566837c3c901b8087d90e49df3ab3c5ee42c66d12f8664736f6c63430008070033",
  "immutableReferences": {},
  "source": "// SPDX-License-Identifier: MIT\r\npragma solidity >=0.4.24;\r\n\r\n// Import the library 'Roles'\r\nimport \"./Roles.sol\";\r\n\r\n// Define a contract 'FarmerRole' to manage this role - add, remove, check\r\ncontract ExporterRole {\r\n  using Roles for Roles.Role;\r\n\r\n  // Define 2 events, one for Adding, and other for Removing\r\n  event ExporterAdded(address indexed account);\r\n  event ExporterRemoved(address indexed account);\r\n\r\n  // Define a struct 'farmers' by inheriting from 'Roles' library, struct Role\r\n  Roles.Role private exporters;\r\n\r\n  // In the constructor make the address that deploys this contract the 1st farmer\r\n  constructor() {\r\n    _addExporter(msg.sender);\r\n  }\r\n\r\n  // Define a modifier that checks to see if msg.sender has the appropriate role\r\n  modifier onlyExporter() {\r\n    // the person doing this MUST be a farmer, so we'll use isDistributor to verify:\r\n    require(isExporter(msg.sender), \"Only a Exporter can do this\");\r\n    _;\r\n  }\r\n\r\n  // Define a function 'isFarmer' to check this role\r\n  function isExporter(address account) public view returns (bool) {\r\n    return exporters.has(account);\r\n  }\r\n\r\n  // Define a function 'addFarmer' that adds this role\r\n  function addExporter(address account) public onlyExporter {\r\n    _addExporter(account);\r\n  }\r\n\r\n  // Define a function 'renounceFarmer' to renounce this role\r\n  function renounceExporter() public {\r\n    _removeExporter(msg.sender);\r\n  }\r\n\r\n  // Define an internal function '_addFarmer' to add this role, called by 'addFarmer'\r\n  function _addExporter(address account) internal {\r\n    exporters.add(account);\r\n    emit ExporterAdded(account);\r\n  }\r\n\r\n  // Define an internal function '_removeFarmer' to remove this role, called by 'removeFarmer'\r\n  function _removeExporter(address account) internal {\r\n    exporters.remove(account);\r\n    emit ExporterRemoved(account);\r\n  }\r\n}",
  "sourcePath": "D:\\enis\\3 sem 1\\blockchain_project\\coffee\\coofeeA\\Blockchain\\contracts\\coffeeaccesscontrol\\ExporterRole.sol",
  "compiler": {
    "name": "solc",
    "version": "0.8.7+commit.e28d00a7.Emscripten.clang"
  },
  "schemaVersion": "3.4.11",
  "updatedAt": "2023-01-02T11:47:43.274Z",
  "devdoc": {
    "kind": "dev",
    "methods": {},
    "version": 1
  },
  "userdoc": {
    "kind": "user",
    "methods": {},
    "version": 1
  }
}