{
  "contractName": "SupplyChain",
  "abi": [
    {
      "inputs": [],
      "stateMutability": "payable",
      "type": "constructor"
    },
    {
      "anonymous": false,
      "inputs": [
        {
          "indexed": true,
          "internalType": "address",
          "name": "account",
          "type": "address"
        }
      ],
      "name": "DistributorAdded",
      "type": "event"
    },
    {
      "anonymous": false,
      "inputs": [
        {
          "indexed": true,
          "internalType": "address",
          "name": "account",
          "type": "address"
        }
      ],
      "name": "DistributorRemoved",
      "type": "event"
    },
    {
      "anonymous": false,
      "inputs": [
        {
          "indexed": true,
          "internalType": "address",
          "name": "account",
          "type": "address"
        }
      ],
      "name": "ExporterAdded",
      "type": "event"
    },
    {
      "anonymous": false,
      "inputs": [
        {
          "indexed": true,
          "internalType": "address",
          "name": "account",
          "type": "address"
        }
      ],
      "name": "ExporterRemoved",
      "type": "event"
    },
    {
      "anonymous": false,
      "inputs": [
        {
          "indexed": false,
          "internalType": "uint256",
          "name": "upc",
          "type": "uint256"
        }
      ],
      "name": "ForSale",
      "type": "event"
    },
    {
      "anonymous": false,
      "inputs": [
        {
          "indexed": false,
          "internalType": "uint256",
          "name": "upc",
          "type": "uint256"
        }
      ],
      "name": "Packed",
      "type": "event"
    },
    {
      "anonymous": false,
      "inputs": [
        {
          "indexed": false,
          "internalType": "uint256",
          "name": "upc",
          "type": "uint256"
        }
      ],
      "name": "Processed",
      "type": "event"
    },
    {
      "anonymous": false,
      "inputs": [
        {
          "indexed": false,
          "internalType": "uint256",
          "name": "upc",
          "type": "uint256"
        }
      ],
      "name": "Purchased",
      "type": "event"
    },
    {
      "anonymous": false,
      "inputs": [
        {
          "indexed": false,
          "internalType": "string",
          "name": "prodState",
          "type": "string"
        }
      ],
      "name": "Received",
      "type": "event"
    },
    {
      "anonymous": false,
      "inputs": [
        {
          "indexed": true,
          "internalType": "address",
          "name": "account",
          "type": "address"
        }
      ],
      "name": "RetailerAdded",
      "type": "event"
    },
    {
      "anonymous": false,
      "inputs": [
        {
          "indexed": true,
          "internalType": "address",
          "name": "account",
          "type": "address"
        }
      ],
      "name": "RetailerRemoved",
      "type": "event"
    },
    {
      "anonymous": false,
      "inputs": [
        {
          "indexed": false,
          "internalType": "string",
          "name": "prodState",
          "type": "string"
        }
      ],
      "name": "Shipped",
      "type": "event"
    },
    {
      "anonymous": false,
      "inputs": [
        {
          "indexed": false,
          "internalType": "uint256",
          "name": "upc",
          "type": "uint256"
        }
      ],
      "name": "Sold",
      "type": "event"
    },
    {
      "anonymous": false,
      "inputs": [
        {
          "indexed": true,
          "internalType": "address",
          "name": "oldOwner",
          "type": "address"
        },
        {
          "indexed": true,
          "internalType": "address",
          "name": "newOwner",
          "type": "address"
        }
      ],
      "name": "TransferOwnership",
      "type": "event"
    },
    {
      "anonymous": false,
      "inputs": [
        {
          "indexed": true,
          "internalType": "address",
          "name": "account",
          "type": "address"
        }
      ],
      "name": "consumerAdded",
      "type": "event"
    },
    {
      "anonymous": false,
      "inputs": [
        {
          "indexed": true,
          "internalType": "address",
          "name": "account",
          "type": "address"
        }
      ],
      "name": "consumerRemoved",
      "type": "event"
    },
    {
      "inputs": [],
      "name": "IdExpo",
      "outputs": [
        {
          "internalType": "uint256",
          "name": "",
          "type": "uint256"
        }
      ],
      "stateMutability": "view",
      "type": "function"
    },
    {
      "inputs": [],
      "name": "IdSupp",
      "outputs": [
        {
          "internalType": "uint256",
          "name": "",
          "type": "uint256"
        }
      ],
      "stateMutability": "view",
      "type": "function"
    },
    {
      "inputs": [],
      "name": "_id_retail",
      "outputs": [
        {
          "internalType": "uint256",
          "name": "",
          "type": "uint256"
        }
      ],
      "stateMutability": "view",
      "type": "function"
    },
    {
      "inputs": [],
      "name": "_id_roast",
      "outputs": [
        {
          "internalType": "uint256",
          "name": "",
          "type": "uint256"
        }
      ],
      "stateMutability": "view",
      "type": "function"
    },
    {
      "inputs": [
        {
          "internalType": "address",
          "name": "account",
          "type": "address"
        }
      ],
      "name": "addConsumer",
      "outputs": [],
      "stateMutability": "nonpayable",
      "type": "function"
    },
    {
      "inputs": [
        {
          "internalType": "address",
          "name": "account",
          "type": "address"
        }
      ],
      "name": "addDistributor",
      "outputs": [],
      "stateMutability": "nonpayable",
      "type": "function"
    },
    {
      "inputs": [
        {
          "internalType": "address",
          "name": "account",
          "type": "address"
        }
      ],
      "name": "addExporter",
      "outputs": [],
      "stateMutability": "nonpayable",
      "type": "function"
    },
    {
      "inputs": [
        {
          "internalType": "address",
          "name": "account",
          "type": "address"
        }
      ],
      "name": "addRetailer",
      "outputs": [],
      "stateMutability": "nonpayable",
      "type": "function"
    },
    {
      "inputs": [
        {
          "internalType": "address",
          "name": "account",
          "type": "address"
        }
      ],
      "name": "isConsumer",
      "outputs": [
        {
          "internalType": "bool",
          "name": "",
          "type": "bool"
        }
      ],
      "stateMutability": "view",
      "type": "function"
    },
    {
      "inputs": [
        {
          "internalType": "address",
          "name": "account",
          "type": "address"
        }
      ],
      "name": "isDistributor",
      "outputs": [
        {
          "internalType": "bool",
          "name": "",
          "type": "bool"
        }
      ],
      "stateMutability": "view",
      "type": "function"
    },
    {
      "inputs": [
        {
          "internalType": "address",
          "name": "account",
          "type": "address"
        }
      ],
      "name": "isExporter",
      "outputs": [
        {
          "internalType": "bool",
          "name": "",
          "type": "bool"
        }
      ],
      "stateMutability": "view",
      "type": "function"
    },
    {
      "inputs": [],
      "name": "isOwner",
      "outputs": [
        {
          "internalType": "bool",
          "name": "",
          "type": "bool"
        }
      ],
      "stateMutability": "view",
      "type": "function"
    },
    {
      "inputs": [
        {
          "internalType": "address",
          "name": "account",
          "type": "address"
        }
      ],
      "name": "isRetailer",
      "outputs": [
        {
          "internalType": "bool",
          "name": "",
          "type": "bool"
        }
      ],
      "stateMutability": "view",
      "type": "function"
    },
    {
      "inputs": [],
      "name": "owner",
      "outputs": [
        {
          "internalType": "address",
          "name": "",
          "type": "address"
        }
      ],
      "stateMutability": "view",
      "type": "function"
    },
    {
      "inputs": [],
      "name": "renounceConsumer",
      "outputs": [],
      "stateMutability": "nonpayable",
      "type": "function"
    },
    {
      "inputs": [],
      "name": "renounceDistributor",
      "outputs": [],
      "stateMutability": "nonpayable",
      "type": "function"
    },
    {
      "inputs": [],
      "name": "renounceExporter",
      "outputs": [],
      "stateMutability": "nonpayable",
      "type": "function"
    },
    {
      "inputs": [],
      "name": "renounceOwnership",
      "outputs": [],
      "stateMutability": "nonpayable",
      "type": "function"
    },
    {
      "inputs": [],
      "name": "renounceRetailer",
      "outputs": [],
      "stateMutability": "nonpayable",
      "type": "function"
    },
    {
      "inputs": [
        {
          "internalType": "address",
          "name": "newOwner",
          "type": "address"
        }
      ],
      "name": "transferOwnership",
      "outputs": [],
      "stateMutability": "nonpayable",
      "type": "function"
    },
    {
      "inputs": [],
      "name": "kill",
      "outputs": [],
      "stateMutability": "nonpayable",
      "type": "function"
    },
    {
      "inputs": [
        {
          "internalType": "string",
          "name": "_prodName",
          "type": "string"
        },
        {
          "internalType": "string",
          "name": "_quality",
          "type": "string"
        },
        {
          "internalType": "uint256",
          "name": "_quantity",
          "type": "uint256"
        },
        {
          "internalType": "string",
          "name": "_country",
          "type": "string"
        },
        {
          "internalType": "string",
          "name": "_govermentAgent",
          "type": "string"
        },
        {
          "internalType": "string",
          "name": "_shipDate",
          "type": "string"
        },
        {
          "internalType": "uint256",
          "name": "_price",
          "type": "uint256"
        }
      ],
      "name": "ship",
      "outputs": [],
      "stateMutability": "nonpayable",
      "type": "function"
    },
    {
      "inputs": [
        {
          "internalType": "uint256",
          "name": "_id",
          "type": "uint256"
        }
      ],
      "name": "impo_received",
      "outputs": [],
      "stateMutability": "nonpayable",
      "type": "function"
    },
    {
      "inputs": [],
      "name": "get_exports",
      "outputs": [
        {
          "components": [
            {
              "internalType": "uint256",
              "name": "id_expo",
              "type": "uint256"
            },
            {
              "internalType": "string",
              "name": "prod_name",
              "type": "string"
            },
            {
              "internalType": "string",
              "name": "quality",
              "type": "string"
            },
            {
              "internalType": "uint256",
              "name": "quantity",
              "type": "uint256"
            },
            {
              "internalType": "uint256",
              "name": "price",
              "type": "uint256"
            },
            {
              "internalType": "string",
              "name": "producing_country",
              "type": "string"
            },
            {
              "internalType": "string",
              "name": "goverment_agent",
              "type": "string"
            },
            {
              "internalType": "string",
              "name": "shippement_date",
              "type": "string"
            },
            {
              "internalType": "enum SupplyChain.State",
              "name": "state",
              "type": "uint8"
            },
            {
              "internalType": "address",
              "name": "exporter",
              "type": "address"
            }
          ],
          "internalType": "struct SupplyChain.export_item[]",
          "name": "",
          "type": "tuple[]"
        }
      ],
      "stateMutability": "view",
      "type": "function"
    },
    {
      "inputs": [
        {
          "internalType": "uint256",
          "name": "_id_expo",
          "type": "uint256"
        },
        {
          "internalType": "address",
          "name": "_add_expo",
          "type": "address"
        },
        {
          "internalType": "uint256",
          "name": "_quantity",
          "type": "uint256"
        },
        {
          "internalType": "uint256",
          "name": "_price",
          "type": "uint256"
        }
      ],
      "name": "distribute",
      "outputs": [],
      "stateMutability": "payable",
      "type": "function"
    }
  ],
  "bytecode": "0x6080604052336000806101000a81548173ffffffffffffffffffffffffffffffffffffffff021916908373ffffffffffffffffffffffffffffffffffffffff16021790555060008054906101000a900473ffffffffffffffffffffffffffffffffffffffff1673ffffffffffffffffffffffffffffffffffffffff16600073ffffffffffffffffffffffffffffffffffffffff167f5c486528ec3e3f0ea91181cff8116f02bfa350e03b8b6f12e00765adbb5af85c60405160405180910390a3620000d0336200016a60201b60201c565b620000e133620001cb60201b60201c565b620000f2336200022c60201b60201c565b62000103336200028d60201b60201c565b33600560006101000a81548173ffffffffffffffffffffffffffffffffffffffff021916908373ffffffffffffffffffffffffffffffffffffffff160217905550600060068190555060006007819055506000600881905550600060098190555062000437565b62000185816001620002ee60201b620017091790919060201c565b8073ffffffffffffffffffffffffffffffffffffffff167f38c89edc51871911b21245e68cc062fa9cc57f40d5eddfc082ea357380e5e44260405160405180910390a250565b620001e6816002620002ee60201b620017091790919060201c565b8073ffffffffffffffffffffffffffffffffffffffff167fddbf200aa634dc3fb81cfd68583dd1040d1c751d335e1d86b631bde3e977fea860405160405180910390a250565b62000247816003620002ee60201b620017091790919060201c565b8073ffffffffffffffffffffffffffffffffffffffff167f914e48e84fe0b3b39520e823a6dd0937569d1a34b8d689d47fbc3e1f41f4f90c60405160405180910390a250565b620002a8816004620002ee60201b620017091790919060201c565b8073ffffffffffffffffffffffffffffffffffffffff167f71ae26cad02663e3d92efd6ec56031a80d74a20c0ab4183faa8bf262261c9baa60405160405180910390a250565b600073ffffffffffffffffffffffffffffffffffffffff168173ffffffffffffffffffffffffffffffffffffffff1614156200032957600080fd5b6200033b8282620003a460201b60201c565b156200034657600080fd5b60018260000160008373ffffffffffffffffffffffffffffffffffffffff1673ffffffffffffffffffffffffffffffffffffffff16815260200190815260200160002060006101000a81548160ff0219169083151502179055505050565b60008073ffffffffffffffffffffffffffffffffffffffff168273ffffffffffffffffffffffffffffffffffffffff161415620003e057600080fd5b8260000160008373ffffffffffffffffffffffffffffffffffffffff1673ffffffffffffffffffffffffffffffffffffffff16815260200190815260200160002060009054906101000a900460ff16905092915050565b612aef80620004476000396000f3fe6080604052600436106101665760003560e01c80638da5cb5b116100d1578063d10376ad1161008a578063dc5610ed11610064578063dc5610ed146104a4578063f2fde38b146104e1578063f88b33701461050a578063fc9675421461053557610166565b8063d10376ad14610437578063da3e0e0d14610462578063db0e6a2f1461048d57610166565b80638da5cb5b146103395780638ec4f505146103645780638f0c86fa1461038d5780638f32d59b146103ca5780638f95ee17146103f5578063c5595c7b1461042057610166565b806361e6982d1161012357806361e6982d14610265578063644241db1461027c578063715018a614610293578063720e86da146102aa5780637250e224146102d3578063834ff739146102fc57610166565b8063112940f91461016b5780631c500c611461019457806325ab9318146101bd57806340d4b31b146101e657806341c0e1b5146102115780635da09b8814610228575b600080fd5b34801561017757600080fd5b50610192600480360381019061018d9190611e80565b610551565b005b3480156101a057600080fd5b506101bb60048036038101906101b69190611e80565b6105a5565b005b3480156101c957600080fd5b506101e460048036038101906101df9190611ead565b6105f9565b005b3480156101f257600080fd5b506101fb61083f565b60405161020891906124f1565b60405180910390f35b34801561021d57600080fd5b50610226610845565b005b34801561023457600080fd5b5061024f600480360381019061024a9190611e80565b6108e5565b60405161025c91906123d6565b60405180910390f35b34801561027157600080fd5b5061027a610902565b005b34801561028857600080fd5b5061029161090d565b005b34801561029f57600080fd5b506102a8610918565b005b3480156102b657600080fd5b506102d160048036038101906102cc9190611fdb565b6109e7565b005b3480156102df57600080fd5b506102fa60048036038101906102f59190611e80565b610b66565b005b34801561030857600080fd5b50610323600480360381019061031e9190611e80565b610bba565b60405161033091906123d6565b60405180910390f35b34801561034557600080fd5b5061034e610bd7565b60405161035b9190612399565b60405180910390f35b34801561037057600080fd5b5061038b60048036038101906103869190611e80565b610c00565b005b34801561039957600080fd5b506103b460048036038101906103af9190611e80565b610c54565b6040516103c191906123d6565b60405180910390f35b3480156103d657600080fd5b506103df610c71565b6040516103ec91906123d6565b60405180910390f35b34801561040157600080fd5b5061040a610cc8565b60405161041791906124f1565b60405180910390f35b34801561042c57600080fd5b50610435610cce565b005b34801561044357600080fd5b5061044c610cd9565b60405161045991906123b4565b60405180910390f35b34801561046e57600080fd5b50610477611205565b60405161048491906124f1565b60405180910390f35b34801561049957600080fd5b506104a261120b565b005b3480156104b057600080fd5b506104cb60048036038101906104c69190611e80565b611216565b6040516104d891906123d6565b60405180910390f35b3480156104ed57600080fd5b5061050860048036038101906105039190611e80565b611233565b005b34801561051657600080fd5b5061051f611250565b60405161052c91906124f1565b60405180910390f35b61054f600480360381019061054a9190612008565b611256565b005b61055a33610bba565b610599576040517f08c379a0000000000000000000000000000000000000000000000000000000008152600401610590906124d1565b60405180910390fd5b6105a2816117b5565b50565b6105ae33611216565b6105ed576040517f08c379a00000000000000000000000000000000000000000000000000000000081526004016105e490612471565b60405180910390fd5b6105f68161180f565b50565b60405180610140016040528060065481526020018881526020018781526020018681526020018281526020018581526020018481526020018381526020016004600781111561064b5761064a6127dc565b5b81526020013373ffffffffffffffffffffffffffffffffffffffff16815250600d60003373ffffffffffffffffffffffffffffffffffffffff1673ffffffffffffffffffffffffffffffffffffffff168152602001908152602001600020600060065481526020019081526020016000206000820151816000015560208201518160010190805190602001906106e2929190611cc8565b5060408201518160020190805190602001906106ff929190611cc8565b50606082015181600301556080820151816004015560a0820151816005019080519060200190610730929190611cc8565b5060c082015181600601908051906020019061074d929190611cc8565b5060e082015181600701908051906020019061076a929190611cc8565b506101008201518160080160006101000a81548160ff02191690836007811115610797576107966127dc565b5b02179055506101208201518160080160016101000a81548173ffffffffffffffffffffffffffffffffffffffff021916908373ffffffffffffffffffffffffffffffffffffffff1602179055509050506001600660008282546107fa91906125c8565b925050819055507f52422beba6de2d83575c947f2bfd24f7dffafb452049fe083d1c010b174b832660405161082e90612431565b60405180910390a150505050505050565b60085481565b600560009054906101000a900473ffffffffffffffffffffffffffffffffffffffff1673ffffffffffffffffffffffffffffffffffffffff163373ffffffffffffffffffffffffffffffffffffffff1614156108e35760006108c8600560009054906101000a900473ffffffffffffffffffffffffffffffffffffffff16611869565b90508073ffffffffffffffffffffffffffffffffffffffff16ff5b565b60006108fb82600461187890919063ffffffff16565b9050919050565b61090b3361190a565b565b61091633611964565b565b610920610c71565b61092957600080fd5b600073ffffffffffffffffffffffffffffffffffffffff1660008054906101000a900473ffffffffffffffffffffffffffffffffffffffff1673ffffffffffffffffffffffffffffffffffffffff167f5c486528ec3e3f0ea91181cff8116f02bfa350e03b8b6f12e00765adbb5af85c60405160405180910390a360008060006101000a81548173ffffffffffffffffffffffffffffffffffffffff021916908373ffffffffffffffffffffffffffffffffffffffff160217905550565b3381600460078111156109fd576109fc6127dc565b5b600d60008473ffffffffffffffffffffffffffffffffffffffff1673ffffffffffffffffffffffffffffffffffffffff168152602001908152602001600020600083815260200190815260200160002060080160009054906101000a900460ff166007811115610a7057610a6f6127dc565b5b14610ab0576040517f08c379a0000000000000000000000000000000000000000000000000000000008152600401610aa790612451565b60405180910390fd5b6005600d60003373ffffffffffffffffffffffffffffffffffffffff1673ffffffffffffffffffffffffffffffffffffffff168152602001908152602001600020600085815260200190815260200160002060080160006101000a81548160ff02191690836007811115610b2757610b266127dc565b5b02179055507feb7115a99b4ff3975015662e8f8d0434763af973215290ec6d1f8068233ff79f604051610b59906123f1565b60405180910390a1505050565b610b6f33610c54565b610bae576040517f08c379a0000000000000000000000000000000000000000000000000000000008152600401610ba590612411565b60405180910390fd5b610bb7816119be565b50565b6000610bd082600161187890919063ffffffff16565b9050919050565b60008060009054906101000a900473ffffffffffffffffffffffffffffffffffffffff16905090565b610c09336108e5565b610c48576040517f08c379a0000000000000000000000000000000000000000000000000000000008152600401610c3f90612491565b60405180910390fd5b610c5181611a18565b50565b6000610c6a82600261187890919063ffffffff16565b9050919050565b60008060009054906101000a900473ffffffffffffffffffffffffffffffffffffffff1673ffffffffffffffffffffffffffffffffffffffff163373ffffffffffffffffffffffffffffffffffffffff1614905090565b60065481565b610cd733611a72565b565b60606000600e60003373ffffffffffffffffffffffffffffffffffffffff1673ffffffffffffffffffffffffffffffffffffffff16815260200190815260200160002080549050905060008167ffffffffffffffff811115610d3e57610d3d612869565b5b604051908082528060200260200182016040528015610d7757816020015b610d64611d4e565b815260200190600190039081610d5c5790505b50905060005b828110156111fc576000600d60003373ffffffffffffffffffffffffffffffffffffffff1673ffffffffffffffffffffffffffffffffffffffff1681526020019081526020016000206000600e60003373ffffffffffffffffffffffffffffffffffffffff1673ffffffffffffffffffffffffffffffffffffffff1681526020019081526020016000208481548110610e1957610e1861283a565b5b906000526020600020015481526020019081526020016000209050806040518061014001604052908160008201548152602001600182018054610e5b90612701565b80601f0160208091040260200160405190810160405280929190818152602001828054610e8790612701565b8015610ed45780601f10610ea957610100808354040283529160200191610ed4565b820191906000526020600020905b815481529060010190602001808311610eb757829003601f168201915b50505050508152602001600282018054610eed90612701565b80601f0160208091040260200160405190810160405280929190818152602001828054610f1990612701565b8015610f665780601f10610f3b57610100808354040283529160200191610f66565b820191906000526020600020905b815481529060010190602001808311610f4957829003601f168201915b505050505081526020016003820154815260200160048201548152602001600582018054610f9390612701565b80601f0160208091040260200160405190810160405280929190818152602001828054610fbf90612701565b801561100c5780601f10610fe15761010080835404028352916020019161100c565b820191906000526020600020905b815481529060010190602001808311610fef57829003601f168201915b5050505050815260200160068201805461102590612701565b80601f016020809104026020016040519081016040528092919081815260200182805461105190612701565b801561109e5780601f106110735761010080835404028352916020019161109e565b820191906000526020600020905b81548152906001019060200180831161108157829003601f168201915b505050505081526020016007820180546110b790612701565b80601f01602080910402602001604051908101604052809291908181526020018280546110e390612701565b80156111305780601f1061110557610100808354040283529160200191611130565b820191906000526020600020905b81548152906001019060200180831161111357829003601f168201915b505050505081526020016008820160009054906101000a900460ff16600781111561115e5761115d6127dc565b5b60078111156111705761116f6127dc565b5b81526020016008820160019054906101000a900473ffffffffffffffffffffffffffffffffffffffff1673ffffffffffffffffffffffffffffffffffffffff1673ffffffffffffffffffffffffffffffffffffffff16815250508383815181106111dd576111dc61283a565b5b60200260200101819052505080806111f490612764565b915050610d7d565b50809250505090565b60075481565b61121433611acc565b565b600061122c82600361187890919063ffffffff16565b9050919050565b61123b610c71565b61124457600080fd5b61124d81611b26565b50565b60095481565b61125f33610c54565b61129e576040517f08c379a000000000000000000000000000000000000000000000000000000000815260040161129590612411565b60405180910390fd5b82848380600d60008573ffffffffffffffffffffffffffffffffffffffff1673ffffffffffffffffffffffffffffffffffffffff1681526020019081526020016000206000848152602001908152602001600020600301541015611337576040517f08c379a000000000000000000000000000000000000000000000000000000000815260040161132e906124b1565b60405180910390fd5b86866005600781111561134d5761134c6127dc565b5b600d60008373ffffffffffffffffffffffffffffffffffffffff1673ffffffffffffffffffffffffffffffffffffffff168152602001908152602001600020600084815260200190815260200160002060080160009054906101000a900460ff1660078111156113c0576113bf6127dc565b5b14611400576040517f08c379a00000000000000000000000000000000000000000000000000000000081526004016113f790612451565b60405180910390fd5b600061140b89611869565b90508073ffffffffffffffffffffffffffffffffffffffff166108fc349081150290604051600060405180830381858888f19350505050158015611453573d6000803e3d6000fd5b5087600d60008b73ffffffffffffffffffffffffffffffffffffffff1673ffffffffffffffffffffffffffffffffffffffff16815260200190815260200160002060008c815260200190815260200160002060030160008282546114b7919061261e565b925050819055506000600d60008b73ffffffffffffffffffffffffffffffffffffffff1673ffffffffffffffffffffffffffffffffffffffff16815260200190815260200160002060008c8152602001908152602001600020600301541415611597576007600d60008b73ffffffffffffffffffffffffffffffffffffffff1673ffffffffffffffffffffffffffffffffffffffff16815260200190815260200160002060008c815260200190815260200160002060080160006101000a81548160ff02191690836007811115611591576115906127dc565b5b02179055505b6040518060c0016040528060075481526020018981526020018881526020018b81526020018a73ffffffffffffffffffffffffffffffffffffffff1681526020013373ffffffffffffffffffffffffffffffffffffffff16815250600f60003373ffffffffffffffffffffffffffffffffffffffff1673ffffffffffffffffffffffffffffffffffffffff168152602001908152602001600020600060075481526020019081526020016000206000820151816000015560208201518160010155604082015181600201556060820151816003015560808201518160040160006101000a81548173ffffffffffffffffffffffffffffffffffffffff021916908373ffffffffffffffffffffffffffffffffffffffff16021790555060a08201518160050160006101000a81548173ffffffffffffffffffffffffffffffffffffffff021916908373ffffffffffffffffffffffffffffffffffffffff16021790555090505050505050505050505050565b600073ffffffffffffffffffffffffffffffffffffffff168173ffffffffffffffffffffffffffffffffffffffff16141561174357600080fd5b61174d8282611878565b1561175757600080fd5b60018260000160008373ffffffffffffffffffffffffffffffffffffffff1673ffffffffffffffffffffffffffffffffffffffff16815260200190815260200160002060006101000a81548160ff0219169083151502179055505050565b6117c981600161170990919063ffffffff16565b8073ffffffffffffffffffffffffffffffffffffffff167f38c89edc51871911b21245e68cc062fa9cc57f40d5eddfc082ea357380e5e44260405160405180910390a250565b61182381600361170990919063ffffffff16565b8073ffffffffffffffffffffffffffffffffffffffff167f914e48e84fe0b3b39520e823a6dd0937569d1a34b8d689d47fbc3e1f41f4f90c60405160405180910390a250565b60008082905080915050919050565b60008073ffffffffffffffffffffffffffffffffffffffff168273ffffffffffffffffffffffffffffffffffffffff1614156118b357600080fd5b8260000160008373ffffffffffffffffffffffffffffffffffffffff1673ffffffffffffffffffffffffffffffffffffffff16815260200190815260200160002060009054906101000a900460ff16905092915050565b61191e816001611c1d90919063ffffffff16565b8073ffffffffffffffffffffffffffffffffffffffff167fa57f1ed597013123b673d8c397ff1ca2231b28b9271e8de7399b7bb22ca3bc5760405160405180910390a250565b611978816002611c1d90919063ffffffff16565b8073ffffffffffffffffffffffffffffffffffffffff167f126174f6cf49c81cdb4a9214c6b8f037bef55b4ec31e4fc776cea2a1c8a88d5960405160405180910390a250565b6119d281600261170990919063ffffffff16565b8073ffffffffffffffffffffffffffffffffffffffff167fddbf200aa634dc3fb81cfd68583dd1040d1c751d335e1d86b631bde3e977fea860405160405180910390a250565b611a2c81600461170990919063ffffffff16565b8073ffffffffffffffffffffffffffffffffffffffff167f71ae26cad02663e3d92efd6ec56031a80d74a20c0ab4183faa8bf262261c9baa60405160405180910390a250565b611a86816003611c1d90919063ffffffff16565b8073ffffffffffffffffffffffffffffffffffffffff167f3e63bb3af59e4ad5151cd408a5208ed9a0d6574c8c575d280c95723d20f53e9c60405160405180910390a250565b611ae0816004611c1d90919063ffffffff16565b8073ffffffffffffffffffffffffffffffffffffffff167fdb7176e79cffef81cb01767dd0447a0b24bb72ca9778d4b245581086b2a7e6db60405160405180910390a250565b600073ffffffffffffffffffffffffffffffffffffffff168173ffffffffffffffffffffffffffffffffffffffff161415611b6057600080fd5b8073ffffffffffffffffffffffffffffffffffffffff1660008054906101000a900473ffffffffffffffffffffffffffffffffffffffff1673ffffffffffffffffffffffffffffffffffffffff167f5c486528ec3e3f0ea91181cff8116f02bfa350e03b8b6f12e00765adbb5af85c60405160405180910390a3806000806101000a81548173ffffffffffffffffffffffffffffffffffffffff021916908373ffffffffffffffffffffffffffffffffffffffff16021790555050565b600073ffffffffffffffffffffffffffffffffffffffff168173ffffffffffffffffffffffffffffffffffffffff161415611c5757600080fd5b611c618282611878565b611c6a57600080fd5b60008260000160008373ffffffffffffffffffffffffffffffffffffffff1673ffffffffffffffffffffffffffffffffffffffff16815260200190815260200160002060006101000a81548160ff0219169083151502179055505050565b828054611cd490612701565b90600052602060002090601f016020900481019282611cf65760008555611d3d565b82601f10611d0f57805160ff1916838001178555611d3d565b82800160010185558215611d3d579182015b82811115611d3c578251825591602001919060010190611d21565b5b509050611d4a9190611dc9565b5090565b604051806101400160405280600081526020016060815260200160608152602001600081526020016000815260200160608152602001606081526020016060815260200160006007811115611da657611da56127dc565b5b8152602001600073ffffffffffffffffffffffffffffffffffffffff1681525090565b5b80821115611de2576000816000905550600101611dca565b5090565b6000611df9611df484612531565b61250c565b905082815260208101848484011115611e1557611e1461289d565b5b611e208482856126bf565b509392505050565b600081359050611e3781612a8b565b92915050565b600082601f830112611e5257611e51612898565b5b8135611e62848260208601611de6565b91505092915050565b600081359050611e7a81612aa2565b92915050565b600060208284031215611e9657611e956128a7565b5b6000611ea484828501611e28565b91505092915050565b600080600080600080600060e0888a031215611ecc57611ecb6128a7565b5b600088013567ffffffffffffffff811115611eea57611ee96128a2565b5b611ef68a828b01611e3d565b975050602088013567ffffffffffffffff811115611f1757611f166128a2565b5b611f238a828b01611e3d565b9650506040611f348a828b01611e6b565b955050606088013567ffffffffffffffff811115611f5557611f546128a2565b5b611f618a828b01611e3d565b945050608088013567ffffffffffffffff811115611f8257611f816128a2565b5b611f8e8a828b01611e3d565b93505060a088013567ffffffffffffffff811115611faf57611fae6128a2565b5b611fbb8a828b01611e3d565b92505060c0611fcc8a828b01611e6b565b91505092959891949750929550565b600060208284031215611ff157611ff06128a7565b5b6000611fff84828501611e6b565b91505092915050565b60008060008060808587031215612022576120216128a7565b5b600061203087828801611e6b565b945050602061204187828801611e28565b935050604061205287828801611e6b565b925050606061206387828801611e6b565b91505092959194509250565b600061207b8383612285565b905092915050565b61208c81612652565b82525050565b61209b81612652565b82525050565b60006120ac82612572565b6120b68185612595565b9350836020820285016120c885612562565b8060005b8581101561210457848403895281516120e5858261206f565b94506120f083612588565b925060208a019950506001810190506120cc565b50829750879550505050505092915050565b61211f81612664565b82525050565b61212e816126ad565b82525050565b600061213f8261257d565b61214981856125a6565b93506121598185602086016126ce565b612162816128ac565b840191505092915050565b600061217a6022836125b7565b9150612185826128bd565b604082019050919050565b600061219d601e836125b7565b91506121a88261290c565b602082019050919050565b60006121c06036836125b7565b91506121cb82612935565b604082019050919050565b60006121e36023836125b7565b91506121ee82612984565b604082019050919050565b6000612206601b836125b7565b9150612211826129d3565b602082019050919050565b6000612229601b836125b7565b9150612234826129fc565b602082019050919050565b600061224c601b836125b7565b915061225782612a25565b602082019050919050565b600061226f601b836125b7565b915061227a82612a4e565b602082019050919050565b60006101408301600083015161229e600086018261237b565b50602083015184820360208601526122b68282612134565b915050604083015184820360408601526122d08282612134565b91505060608301516122e5606086018261237b565b5060808301516122f8608086018261237b565b5060a083015184820360a08601526123108282612134565b91505060c083015184820360c086015261232a8282612134565b91505060e083015184820360e08601526123448282612134565b91505061010083015161235b610100860182612125565b50610120830151612370610120860182612083565b508091505092915050565b612384816126a3565b82525050565b612393816126a3565b82525050565b60006020820190506123ae6000830184612092565b92915050565b600060208201905081810360008301526123ce81846120a1565b905092915050565b60006020820190506123eb6000830184612116565b92915050565b6000602082019050818103600083015261240a8161216d565b9050919050565b6000602082019050818103600083015261242a81612190565b9050919050565b6000602082019050818103600083015261244a816121b3565b9050919050565b6000602082019050818103600083015261246a816121d6565b9050919050565b6000602082019050818103600083015261248a816121f9565b9050919050565b600060208201905081810360008301526124aa8161221c565b9050919050565b600060208201905081810360008301526124ca8161223f565b9050919050565b600060208201905081810360008301526124ea81612262565b9050919050565b6000602082019050612506600083018461238a565b92915050565b6000612516612527565b90506125228282612733565b919050565b6000604051905090565b600067ffffffffffffffff82111561254c5761254b612869565b5b612555826128ac565b9050602081019050919050565b6000819050602082019050919050565b600081519050919050565b600081519050919050565b6000602082019050919050565b600082825260208201905092915050565b600082825260208201905092915050565b600082825260208201905092915050565b60006125d3826126a3565b91506125de836126a3565b9250827fffffffffffffffffffffffffffffffffffffffffffffffffffffffffffffffff03821115612613576126126127ad565b5b828201905092915050565b6000612629826126a3565b9150612634836126a3565b925082821015612647576126466127ad565b5b828203905092915050565b600061265d82612683565b9050919050565b60008115159050919050565b600081905061267e82612a77565b919050565b600073ffffffffffffffffffffffffffffffffffffffff82169050919050565b6000819050919050565b60006126b882612670565b9050919050565b82818337600083830152505050565b60005b838110156126ec5780820151818401526020810190506126d1565b838111156126fb576000848401525b50505050565b6000600282049050600182168061271957607f821691505b6020821081141561272d5761272c61280b565b5b50919050565b61273c826128ac565b810181811067ffffffffffffffff8211171561275b5761275a612869565b5b80604052505050565b600061276f826126a3565b91507fffffffffffffffffffffffffffffffffffffffffffffffffffffffffffffffff8214156127a2576127a16127ad565b5b600182019050919050565b7f4e487b7100000000000000000000000000000000000000000000000000000000600052601160045260246000fd5b7f4e487b7100000000000000000000000000000000000000000000000000000000600052602160045260246000fd5b7f4e487b7100000000000000000000000000000000000000000000000000000000600052602260045260246000fd5b7f4e487b7100000000000000000000000000000000000000000000000000000000600052603260045260246000fd5b7f4e487b7100000000000000000000000000000000000000000000000000000000600052604160045260246000fd5b600080fd5b600080fd5b600080fd5b600080fd5b6000601f19601f8301169050919050565b7f7368697070656d656e7420686173206172726976656420746f2074686520706f60008201527f7274000000000000000000000000000000000000000000000000000000000000602082015250565b7f4f6e6c792061204469737472696275746f722063616e20646f20746869730000600082015250565b7f70726f6475637420686173206265656e207363686564756c656420666f72207360008201527f68697070656d656e74207375636365737366756c6c7900000000000000000000602082015250565b7f54686973206974656d206861736e2774206265656e207265636569766564207960008201527f65742e0000000000000000000000000000000000000000000000000000000000602082015250565b7f4f6e6c792061204578706f727465722063616e20646f20746869730000000000600082015250565b7f4f6e6c7920612052657461696c65722063616e20646f20746869730000000000600082015250565b7f54686973206974656d2069736e2774207061636b6564207965742e0000000000600082015250565b7f4f6e6c79206120436f6e73756d65722063616e20646f20746869730000000000600082015250565b60088110612a8857612a876127dc565b5b50565b612a9481612652565b8114612a9f57600080fd5b50565b612aab816126a3565b8114612ab657600080fd5b5056fea2646970667358221220287194d304ff1ce1a74638087ab259be21cc3b09ee5d07206eb1b8ad989f8e0c64736f6c63430008070033",
  "immutableReferences": {},
  "source": "// SPDX-License-Identifier: MIT\r\npragma solidity >=0.4.24;\r\n// Update pragma solidity statement to be less restrictive with >= instead of ^\r\n\r\n// Define a contract 'Supplychain'\r\n\r\n\r\n// NOTE: don't need to do \"../contracts/.. before b/c already in the contracts master folder so can call these files on command\r\nimport \"../coffeeaccesscontrol/ConsumerRole.sol\";\r\nimport \"../coffeeaccesscontrol/DistributorRole.sol\";\r\nimport \"../coffeeaccesscontrol/ExporterRole.sol\";\r\nimport \"../coffeeaccesscontrol/RetailerRole.sol\";\r\n// You should inherit the Ownable.sol smart contract here and leverage the modifiers defined in that smart contract and use it below as well (line 27)\r\nimport \"../coffeecore/Ownable.sol\";\r\n\r\n// leverage modifiers defined in the Ownable smart contract and use it here:\r\ncontract SupplyChain is Ownable, ConsumerRole, DistributorRole, ExporterRole, RetailerRole {\r\n\r\n  // Define 'owner'\r\n  address contractOwner;\r\n  uint public IdExpo;\r\n  uint public IdSupp;\r\n  uint public  _id_roast;\r\n  uint public  _id_retail;\r\n  mapping (uint => roast_item) roast_items;\r\n  mapping (uint => retail_item) on_retail_items;\r\n  \r\n\r\n  // Define a public mapping 'itemsHistory' that maps the UPC to an array of TxHash, that track its journey through the supply chain -- to be sent from DApp.\r\n  // upc => string[] of the supply chain movement\r\n  mapping (uint => string[]) itemsHistory;\r\n  \r\n  // Define enum 'State' with the following values:\r\n  enum State \r\n  { \r\n    Processed,  // 1\r\n    Packed,     // 2\r\n    ForSale,    // 3\r\n    Sold,       // 4\r\n    Shipped,    // 5\r\n    Received,   // 6\r\n    Purchased,   // 7\r\n    OutOfStock\r\n    }\r\n  struct roast_item{\r\n    uint id_roast;\r\n    uint quantity_for_roast;\r\n    uint quantity_ready;\r\n    uint price;\r\n    uint bc;\r\n    address roaster;\r\n  }\r\n  struct retail_item{\r\n    uint quantity;\r\n    uint bc;\r\n    address retailer;\r\n    uint price;\r\n  }\r\n \r\n  // Define 8 events with the same 8 state values and accept 'upc' as input argument\r\n  event Processed(uint upc);\r\n  event Packed(uint upc);\r\n  event ForSale(uint upc);\r\n  event Sold(uint upc);\r\n  event Purchased(uint upc);\r\n\r\n  \r\n\r\n\r\n\r\n\r\n// MODIFIERS SECTION //\r\n\r\n\r\n\r\n\r\n  // Define a modifer that checks to see if msg.sender == owner of the contract\r\n  modifier OnlyOwner() {\r\n    require(msg.sender == contractOwner, \"Only the owner can do this\");\r\n    _;\r\n  }\r\n\r\n  // Define a modifer that verifies the Caller\r\n  modifier verifyCaller (address _address) {\r\n    require(msg.sender == _address); \r\n    _;\r\n  }\r\n\r\n  // Define a modifier that checks if the paid amount is sufficient to cover the price\r\n  modifier paidEnough(uint _price) { \r\n    require(msg.value >= _price, \"More money is required, this is not enough to handle the transaction!\");\r\n    _;\r\n  }\r\n  \r\n  // Define a modifier that checks the price and refunds the remaining balance\r\n /* modifier checkValue(uint _upc) {\r\n    _;\r\n    uint _price = items[_upc].productPrice;\r\n    uint amountToReturn = msg.value - _price;\r\n    // this structure (struct) gets this checkValue modifier to execute in the code after the function is called with _make_payable\r\n    address payable consumerAddressPayable = _make_payable(items[_upc].consumerID);\r\n    \r\n    consumerAddressPayable.transfer(amountToReturn);\r\n  }\r\n \r\n*/\r\n\r\n\r\n// CONSTRUCTORS //\r\n// public payable \r\n  constructor() payable {\r\n    contractOwner = msg.sender;\r\n    IdExpo = 0;\r\n    IdSupp = 0;\r\n    _id_roast = 0;\r\n    _id_retail = 0;\r\n  }\r\n\r\n  // Define a function 'kill' if required\r\n  function kill() public {\r\n    if (msg.sender == contractOwner) {\r\n      address payable ownerAddressPayable = _make_payable(contractOwner);\r\n      selfdestruct(ownerAddressPayable);\r\n    }\r\n  }\r\n\r\n  // _make_payable function to address the above kill function\r\n  function _make_payable(address x) internal pure returns (address payable) {\r\n    //address payable p = address(uint160(x));\r\n    //address payable p = address(uint160(address(x)));\r\n    address payable p = payable(address(x));\r\n    return p;\r\n  }\r\n\r\n  // Define a function 'buyItem' that allows the disributor to mark an item 'Sold'\r\n  // Use the above defined modifiers to check if the item is available for sale, if the buyer has paid enough, \r\n  // and any excess ether sent is refunded back to the buyer\r\n  /*function buyItem(uint _upc)\r\n    // Call modifier to check if upc has passed previous supply chain stage\r\n    forSale(_upc)\r\n    // Call modifer to check if buyer has paid enough\r\n    paidEnough(items[_upc].productPrice)\r\n    // Call modifer to send any excess ether back to buyer\r\n    checkValue(_upc)\r\n    // Call function to check if purchaser is in fact a Distributor:\r\n    onlyDistributor\r\n    // When it's the first time going through function, distributor is contractOwner that possesses all roles\r\n    public payable \r\n    {\r\n      // Update the appropriate fields - ownerID, distributorID, itemState\r\n      items[_upc].ownerID = contractOwner;\r\n      items[_upc].distributorID = msg.sender;\r\n      items[_upc].itemState = State.Sold;\r\n      \r\n      // Transfer money to farmer\r\n      address payable originFarmerAddressPayable = _make_payable(items[_upc].originFarmerID);\r\n      \r\n      originFarmerAddressPayable.transfer(msg.value);\r\n      // emit the appropriate event\r\n      emit Sold(_upc);\r\n    }\r\n\r\n\r\n // Define a function 'receiveItem' that allows the retailer to mark an item 'Received'\r\n  // Use the above modifiers to check if the item is shipped\r\n function receiveItem(uint _upc) \r\n    // Call modifier to check if upc has passed previous supply chain stage\r\n    shipped (_upc)\r\n    // Access Control List enforced by calling Smart Contract / DApp\r\n    onlyRetailer\r\n    // Check on list:\r\n    verifyCaller(items[_upc].retailerID)\r\n    //verify this is the specific retailer for the UPC\r\n    public\r\n    {\r\n    // Update the appropriate fields - ownerID, retailerID, itemState\r\n    items[_upc].ownerID = contractOwner;\r\n    items[_upc].retailerID = msg.sender;\r\n    items[_upc].itemState = State.Received;\r\n    // Emit the appropriate event\r\n    emit Received(_upc);\r\n  }\r\n\r\n\r\n\r\n\r\n  // Define a function 'purchaseItem' that allows the consumer to mark an item 'Purchased'\r\n  // Use the above modifiers to check if the item is received\r\n  function purchaseItem(uint _upc)  \r\n    // Call modifier to check if upc has passed previous supply chain stage\r\n    received(_upc)\r\n    // Access Control List enforced by calling Smart Contract / DApp\r\n    onlyConsumer\r\n    //verify this is the specific retailer for the UPC\r\n    public\r\n    {\r\n    // Update the appropriate fields - ownerID, consumerID, itemState\r\n    items[_upc].ownerID = contractOwner;\r\n    items[_upc].consumerID = msg.sender;\r\n    items[_upc].itemState = State.Purchased;\r\n    // Emit the appropriate event\r\n    emit Purchased(_upc);\r\n  }\r\n\r\n  // Define a function 'fetchItemBufferOne' that fetches the data\r\n  /*function fetchItemBufferOne(uint _upc) public view returns \r\n  (\r\n  uint    itemSKU,\r\n  uint    itemUPC,\r\n  address ownerID,\r\n  address originFarmerID,\r\n  // NOTE: Data location must be \"memory\" for return parameter in function\r\n  string memory originFarmName,\r\n  string memory originFarmInformation,\r\n  string memory originFarmLatitude,\r\n  string memory originFarmLongitude\r\n  ) \r\n  {\r\n  // Assign values to the 8 parameters\r\n  \r\n  itemSKU = items[_upc].sku;\r\n  \r\n  itemUPC = items[_upc].upc;\r\n  \r\n  ownerID = items[_upc].ownerID;\r\n  \r\n  originFarmerID = items[_upc].originFarmerID;\r\n  \r\n  originFarmName = items[_upc].originFarmName;\r\n  \r\n  originFarmInformation = items[_upc].originFarmInformation;\r\n  \r\n  originFarmLatitude = items[_upc].originFarmLatitude;\r\n  \r\n  originFarmLongitude = items[_upc].originFarmLongitude;\r\n    \r\n\r\n  return \r\n  (\r\n  itemSKU,\r\n  itemUPC,\r\n  ownerID,\r\n  originFarmerID,\r\n  originFarmName,\r\n  originFarmInformation,\r\n  originFarmLatitude,\r\n  originFarmLongitude\r\n  );\r\n  }\r\n*/\r\n\r\n  ///\r\n  ///export part \r\n  struct export_item{\r\n  uint id_expo;\r\n  string prod_name;\r\n  string quality;\r\n  uint quantity;\r\n  uint price; //selling price\r\n  string producing_country;\r\n  string goverment_agent;\r\n  string shippement_date;\r\n  State state;\r\n  address exporter;\r\n  }\r\n  mapping (address => mapping(uint=>export_item)) shipped_items;\r\n  mapping(address => uint[]) shipped_ids;\r\n\r\n   modifier shipped(address _add_expo,uint _id_expo) {\r\n    require(shipped_items[_add_expo][_id_expo].state == State.Shipped, \"This item hasn't been received yet.\");\r\n    _;\r\n  }\r\n\r\n  event Shipped(string prodState);\r\n  event Received(string prodState);\r\n\r\n  function ship(string memory _prodName ,\r\n  string memory _quality, uint _quantity, string memory _country ,string memory _govermentAgent,\r\n  string memory _shipDate,uint _price) public\r\n  {\r\n    shipped_items[msg.sender][IdExpo] = export_item({\r\n    id_expo:IdExpo,\r\n    prod_name:_prodName,\r\n    quality:_quality,\r\n    quantity:_quantity,\r\n    price:_price,\r\n    producing_country:_country,\r\n    goverment_agent:_govermentAgent,\r\n    shippement_date:_shipDate,\r\n    exporter:msg.sender,\r\n    state:State.Shipped\r\n    });    \r\n    IdExpo +=1;\r\n    emit Shipped(\"product has been scheduled for shippement successfully\");\r\n  }\r\n  \r\n  function impo_received(uint _id) public\r\n  shipped(msg.sender,_id) \r\n  {\r\n    shipped_items[msg.sender][_id].state = State.Received;\r\n    emit Received( \"shippement has arrived to the port\");\r\n  }\r\n\r\n  function get_exports() public view returns(export_item[] memory){\r\n    uint count = shipped_ids[msg.sender].length;\r\n    export_item[] memory exports = new export_item[](count);\r\n    for (uint i= 0 ; i< count; i++){\r\n        export_item storage item = shipped_items[msg.sender][shipped_ids[msg.sender][i]];\r\n        exports[i] = item;\r\n    }\r\n    return exports;\r\n  }\r\n  ///\r\n  ///supply part \r\n  struct supply_item{\r\n    uint id_supply;\r\n    uint quantity;\r\n    uint price;\r\n    uint id_expo;\r\n    address ad_expoter;\r\n    address distributor;\r\n  }\r\n  mapping (address => mapping(uint=>supply_item)) on_supply_items;\r\n\r\n  modifier received(uint _id_expo,address _add_expo) {\r\n    require(shipped_items[_add_expo][_id_expo].state == State.Received, \"This item hasn't been received yet.\");\r\n    _;\r\n  }\r\n\r\nmodifier prod_enough(address _add_expo,uint _id_expo,uint _quantity) {\r\n    require(shipped_items[_add_expo][_id_expo].quantity >= _quantity, \"This item isn't packed yet.\");\r\n    _;\r\n  }\r\n\r\n\r\n  function distribute(uint _id_expo,address _add_expo,uint _quantity,uint _price) public payable \r\n  onlyDistributor\r\n  prod_enough(_add_expo,_id_expo,_quantity)\r\n  ///paidEnough(_quantity*shipped_items[_add_expo][_id_expo].price)\r\n  received(_id_expo,_add_expo)\r\n  {\r\n    address payable exporterAddressPayable = _make_payable(_add_expo);      \r\n    exporterAddressPayable.transfer(msg.value);\r\n    shipped_items[_add_expo][_id_expo].quantity-= _quantity;\r\n    if(shipped_items[_add_expo][_id_expo].quantity == 0)\r\n    {\r\n      shipped_items[_add_expo][_id_expo].state = State.OutOfStock;\r\n    }\r\n    on_supply_items[msg.sender][IdSupp] = supply_item({\r\n      id_supply:IdSupp,\r\n      quantity: _quantity,\r\n      price:_price,\r\n      id_expo:_id_expo,\r\n      ad_expoter:_add_expo,\r\n      distributor:msg.sender\r\n    });\r\n  }\r\n}\r\n",
  "sourcePath": "D:\\enis\\3 sem 1\\blockchain_project\\coffee\\coofeeA\\Blockchain\\contracts\\coffeebase\\SupplyChain.sol",
  "compiler": {
    "name": "solc",
    "version": "0.8.7+commit.e28d00a7.Emscripten.clang"
  },
  "schemaVersion": "3.4.11",
  "updatedAt": "2023-01-02T11:47:43.284Z",
  "devdoc": {
    "kind": "dev",
    "methods": {},
    "version": 1
  },
  "userdoc": {
    "kind": "user",
    "methods": {
      "isOwner()": {
        "notice": "Check if the calling address is the owner of the contract"
      },
      "owner()": {
        "notice": "Look up the address of the owner"
      },
      "renounceOwnership()": {
        "notice": "Define a function to renounce ownerhip"
      },
      "transferOwnership(address)": {
        "notice": "Define a public function to transfer ownership"
      }
    },
    "version": 1
  }
}